:020000040800F2
:1000000080180020D5010008332C00082D26000898
:10001000312C00086B0700088F4700080000000023
:100020000000000000000000000000004B2F00084E
:10003000C108000800000000492F00084D2F0008EB
:10004000EF010008EF010008EF010008EF010008D0
:10005000EF010008EF010008EF010008EF010008C0
:10006000EF010008EF010008EF010008EF010008B0
:10007000EF010008EF010008EF010008EF010008A0
:10008000EF010008EF010008EF010008EF01000890
:1000900019470008EF010008EF010008EF01000810
:1000A000EF010008EF010008EF010008EF01000870
:1000B000EF010008EF010008EF010008EF01000860
:1000C000EF010008EF010008EF010008EF01000850
:1000D000EF010008EF010008EF010008EF01000840
:1000E000EF010008EF010008EF01000800F002F83E
:1000F00000F060F80AA090E8000C82448344AAF162
:100100000107DA4501D100F055F8AFF2090EBAE85F
:100110000F0013F0010F18BFFB1A43F0010318473B
:10012000E0550000005600000A444FF0000C10F8A3
:10013000013B13F0070408BF10F8014B1D1108BF65
:1001400010F8015B641E05D010F8016B641E01F805
:10015000016BF9D113F0080F1EBF10F8014BAD1C55
:100160000C1B09D16D1E58BF01F801CBFAD505E073
:1001700014F8016B01F8016B6D1EF9D59142D6D3CD
:10018000704700000023002400250026103A28BFF5
:1001900078C1FBD8520728BF30C148BF0B607047F9
:1001A0001FB59DE8030000F07FF900F04FF91FBD77
:1001B00010B510BD00F02AFA1146FFF7F1FF04F068
:1001C000AFFE00F048FA03B4FFF7F2FF03BC00F003
:1001D00079FA00000948804709480047FEE7FEE732
:1001E000FEE7FEE7FEE7FEE7FEE7FEE7FEE7FEE7E7
:1001F00004480549054A064B70470000CD2F00080A
:10020000ED000008801200208018002080140020DB
:100210008014002070B50D460646041F00F028F932
:10022000D0F800C0C5B1E6B105F10B0020F007031E
:10023000AB423CBF002070BD2068984238BFDCF85C
:10024000042013D3C11A08292FD3E01840F8041B47
:10025000236000F087F928E0304600F083F90020A1
:1002600070BD2846BDE8704000F04DB9002A18BFA7
:10027000A2423CBF94465268F8D30119914216D16C
:1002800011680844984212D3C11A08293CBF206063
:10029000506808D35168E018416021681268114421
:1002A000C91A01602360CCF80400201D70BD181F1E
:1002B00000F029F9050007D021680A1F211D00F070
:1002C00069F8201D00F04EF9284670BD10B5431C9A
:1002D00002E010F8011B71B18107FAD14FF0013231
:1002E00002C88C1A8C4314EAC211F9D0C01A0A064B
:1002F00003D0C01E10BDC01A10BD0A0401D0801E5C
:1003000010BD0902FCD0401E10BD032A40F230800F
:1003100010F0030C00F0158011F8013BBCF1020F46
:10032000624498BF11F801CB00F8013B38BF11F8C7
:10033000013BA2F1040298BF00F801CB38BF00F8DE
:10034000013B11F0030300F02580083AC0F008805B
:1003500051F8043B083A51F804CBA0E80810F5E73F
:10036000121D5CBF51F8043B40F8043BAFF3008022
:10037000D20724BF11F8013B11F801CB48BF11F897
:10038000012B24BF00F8013B00F801CB48BF00F867
:10039000012B704710B5203AC0F00B80B1E818501F
:1003A000203AA0E81850B1E81850A0E81850BFF45F
:1003B000F5AF5FEA027C24BFB1E81850A0E81850FE
:1003C00044BF18C918C0BDE810405FEA827C24BF52
:1003D00051F8043B40F8043B08BF7047D20728BFE0
:1003E00031F8023B48BF11F8012B28BF20F8023B2F
:1003F00048BF00F8012B70474FF0000200B51346CC
:1004000094469646203922BFA0E80C50A0E80C5034
:10041000B1F12001BFF4F7AF090728BFA0E80C50E5
:1004200048BF0CC05DF804EB890028BF40F8042BDE
:1004300008BF704748BF20F8022B11F0804F18BF4B
:1004400000F8012B704770477047704770B5064C35
:100450007C44064D7D4403E0206820448047241DF1
:10046000AC42F9D170BD0000CC520000CC5200006B
:10047000004870472412002070477047704770474B
:1004800038B504460A4600206946AFF300800028CC
:1004900008BF38BD02460099204600F096F80120BA
:1004A00038BD012000F0ABB8F8B5AFF300800546C9
:1004B00000200C46102000BF0646A819A0420DD906
:1004C000324669460020AFF30080070008BF00F005
:1004D00096F80098A04218BF0546C419FFF7C8FF58
:1004E00005600746F01D20F007004619284600F079
:1004F00065F8B44208BFF8BDA21B31463868BDE8B4
:10050000F84000F062B870B50646FFF7B1FF056825
:1005100006F10B0020F00704B4429CBF002070BD20
:100520002B466A68BAB11068A04210D304F10801E2
:1005300088423CBF5068586007D351681019416029
:100540001168091B016058601460101D70BD1346CE
:100550005268002AE7D121462846FFF791FF00287C
:10056000DED170BD70B50446051FFFF781FF00683E
:10057000002C14BF446870BD002C18BFAC423CBFB7
:1005800020466468F8D301680A18AA4218BF45607B
:1005900003D12A6805461144016028684119A14227
:1005A0001CBF6C6070BD6168696021680844286088
:1005B00070BD0000004870471C120020002101603F
:1005C000C0E90110704710207047034640688C4610
:1005D000002818BF88423CBF03464068F8D318681B
:1005E0001844884207D00CF1030020F00700001DDA
:1005F000411A521A0146081D0A60FFF7B3BF10B531
:1006000000F038F8BDE8104000F02EB87546FFF74E
:10061000D1FFAE4605006946534620F007008546E7
:1006200018B020B5FFF7E4FDBDE820404FF000060C
:100630004FF000074FF000084FF0000B21F00701CA
:10064000AC46ACE8C009ACE8C009ACE8C009ACE80D
:10065000C0098D46704710B50446AFF300802046B0
:10066000BDE81040FFF7AFBD002801D000F02AB868
:100670007047000010B5012805D0002103A000F04C
:1006800028F8012010BD09A1F8E70000534947529E
:10069000544D454D3A204F7574206F662068656152
:1006A00070206D656D6F7279000000003A2048651A
:1006B0006170206D656D6F727920636F72727570F5
:1006C0007465640001491820ABBEFEE726000200F5
:1006D000704770B505460C460A2000E06D1C00F01E
:1006E00011F835B128780028F8D102E0641C00F038
:1006F00009F814B120780028F8D1BDE870400A202C
:10070000AFF3008008B569468DF800000320ABBE4A
:1007100008BD000070B5044600688168C943C90778
:1007200017D1816821F00101816000F015FB0546B9
:100730000AE000BF00F010FB401B022804D920682B
:100740008068C043C00706D020688068C043C007E7
:10075000F0D0002070BDA06A40F01000A062E06AF6
:1007600040F00100E062012070BDFEE770B586B088
:100770000546F420214E8DF80C0032230322B421CB
:100780001F4800F0B3FB0446022801D0012C09D118
:1007900000220221304600F0D9FA0122022130461F
:1007A00000F0D4FA002CE8D1012604A8CDE9000617
:1007B000322433460022B4210294284600F0E2FCA1
:1007C0009DF81000C00702D0012006B070BD0123C3
:1007D00003AAB4212846009400F03EFC18208DF8AE
:1007E000140005A8CDE9000601231A46B42102949D
:1007F000284600F0EFFD0020E7E700000008014078
:10080000D0010020002070470020704710B5002262
:100810000549064802F0CEFC03490448403902F07D
:10082000C3FC002010BD0000D00C0020CC03002031
:100830002DE9F84300260F460546134CDFF84C809F
:100840004FF48069009610E02268695C08F8021095
:100850000098285C04F0ECFA0098401C0090206896
:10086000401C2060484500D12660386800998842C5
:10087000EAD82946064802F097FC054802F078FCC1
:100880000020BDE8F88300007800002090080020D8
:10089000CC030020094A10B5D2F8B822D2F81422AD
:1008A0000AB1012010BD0A460146044802F082FC4C
:1008B000BDE81040014802F0DBBC0000CC03002082
:1008C000704772B6FEE70000F8B50024009490F877
:1008D00024202546012A12D0012280F824204A68CB
:1008E0001F23072A0DD20668776B521E02EB820285
:1008F00093409F430B6893401F43776319E00220A6
:10090000F8BD06680D2A0AD2376BD21F02EB8202AD
:1009100093409F430B6893401F43376309E0F76A96
:100920000D3A02EB820293409F430B6893401F43B2
:10093000F7620A68072306680A2A0AD3F7680A3AA0
:1009400002EB420293409F438B6893401F43F76042
:1009500008E0376902EB420293409F438B68934063
:100960001F4337610A68102A01D0112A20D1124B87
:1009700002689A4217D193681B0219D4936843F412
:10098000000393600968102912D10C490C4A0968C8
:10099000B1FBF2F101EB8101490000E0491E009139
:1009A0000029FBD104E0816A41F020018162012429
:1009B00080F824502046F8BD002401402400002087
:1009C00040420F002DE9F0414FF0000704003D4682
:1009D0007ED0A06A002628B9E66284F8246020460A
:1009E00000F07EF82046FFF795FEA16AC90600D404
:1009F00020B1A06A40F01000A06269E0A16A21F471
:100A0000885141F00201A1626268E169237B0A43D7
:100A100047EA43010A43A1684FF48077B94209D0FD
:100A2000012907D05FF0000194F814C0BCF1010F58
:100A300002D00AE03946F7E7F3B1A36A43F0200396
:100A4000A362E36A43F00103E3622368D3F804C0BE
:100A50002CF4694C4CEA010CC3F804C021688B6883
:100A6000DFF870C003EA0C0313438B60A168B9423E
:100A70000BD0012909D00CE0DFF85CC0A3690CEBB6
:100A800043330B4343F40061DFE7218A0D05A5F5ED
:100A900080152168CB6A23F470032B43CB62216855
:100AA00089680E4B1940914208D1E662A16A21F093
:100AB000020141F00101A162BDE8F081A06A20F0CD
:100AC000020040F01000A062E06A40F00100E06225
:100AD0000120F1E7FDF7E1FF00E0FFFFFE0E1FFF41
:100AE00000B585B000210091019102910391006849
:100AF0000E49884218D10E48816941F40071816124
:100B0000816901F400710491816941F004018161FE
:100B10008069694600F004000490072000900320DB
:100B20000190044800F01AF805B000BD002401400F
:100B3000001002400008014070B5044600F00CF9B6
:100B40000546601C02D004480078044400F004F913
:100B5000401BA042FAD370BD180000202DE9F84FC9
:100B6000DFF8B891002409F1040A0AF1040B2346C6
:100B70000F270BF1040EC9E00125A5402A40AA4227
:100B80007DD1674ED1F804C0ACEB0608B44532D035
:100B900014DCBCF1030F3AD009DCBCF1000F2AD001
:100BA000BCF1010F1CD0BCF1020F31D11DE0BCF132
:100BB000110F17D0BCF1120F2AD119E0B8F5881F18
:100BC00019D006DCB8F5803F15D0B8F5801F1FD1CD
:100BD00011E0B8F5001F0ED0B8F5041F18D10AE0D7
:100BE000CB6815E0CB681B1D12E0CB6808330FE023
:100BF000CB680C330CE08B682BB1012B4FF0080352
:100C000003D0456104E0042302E0056100E0002315
:100C1000FF2A01D8064601E000F104064FEA8405E8
:100C200001D9A5F12005D6F8008007FA05FC28EACD
:100C30000C0803FA05F548EA0508C6F800804D6877
:100C4000ED0062D5374DAE6946F00106AE61AD6983
:100C500024F0030605F001050095334D06EB050C65
:100C6000DCF80850A607360F07FA06F825EA08054B
:100C7000DFF8B880404503D14FF0000817E044E0AA
:100C8000DFF8AC80404502D14FF001080FE0DFF8FB
:100C9000A480404502D14FF0020808E0DFF89880B8
:100CA000404502D14FF0030801E04FF0040808FA74
:100CB00006F848EA0508CCF808804D68D9F80060C5
:100CC000ED034D4601D5164300E096432E604D6876
:100CD000DAF80060AD03554601D5164300E09643AF
:100CE0002E604D68DBF80060ED025D4601D51643CD
:100CF00000E096432E604D68DEF80060AD02754658
:100D000001D5164300E096432E60641C0D682A4608
:100D1000E5407FF431AFBDE8F88F000000040140EA
:100D200000001110001002400000014000080140C6
:100D3000000C01400010014000140140C26821EA8B
:100D400002030A4043EA0241016170470AB10161AE
:100D500070470904FBE70000014880687047000005
:100D60001800002070B5040025D094F83D0000253F
:100D700020B984F83C50204600F0C4FB242084F8BD
:100D80003D002068016821F00101016020680168D0
:100D900041F4004101602068016821F400410160D4
:100DA00001F05AFA4D4A6168914201D84C4900E07D
:100DB0004C49884201D2012070BD4B492368B0FBE9
:100DC000F1F15E6826F03F060E435E606368934271
:100DD00006D94FF4967359434FF47A73B1FBF3F18C
:100DE0002368491C1E6A26F03F0631431962616878
:100DF000914210D84900401EB0FBF1F2521CC2F3E0
:100E00000B02042A01D2042022E0B0FBF1F0401CC6
:100E1000C0F30B001CE0A268F2B301EBC10303EBCB
:100E20000116431EB3FBF6F35B1C43F480431B0522
:100E300049D092B301EBC10202EB0111401EB0FB9D
:100E4000F1F0401CC0F30B0040F4804040F400403F
:100E50002168CA694CF6FF739A431043C861D4E90C
:100E6000071001432068026822F0C00211430160AC
:100E7000D4E9030101432068826848F2FF339A43B2
:100E800011438160D4E9050108432168CA6822F052
:100E9000FF021043C86001E00EE016E02068016820
:100EA00041F0010101602564202084F83D002563A4
:100EB00084F83E50002070BD01EB4106431EB3FB99
:100EC000F6F35B1CB3E70120C2E701EB4101401ED2
:100ED000B0FBF1F0401CC0F30B00B7E7A0860100A7
:100EE00080841E0000093D0040420F002DE9FF4FA5
:100EF00081B089460446FFF72FFF054694F83D0070
:100F00004FF0010820287DD11923012250492046A5
:100F1000009501F0E9FC002874D194F83C00012808
:100F200070D0012084F83C0020680168C90703D113
:100F3000016841F0010101602068016821F400614D
:100F40000160242084F83D00002626644148E062C8
:100F50004FF0011B20272068016841F48071016077
:100F60000095002259462046049B01F0BDFC50B17B
:100F700020680068C00502D54FF40070206403208B
:100F800005B0BDE8F08F216809F0FE000861FFF7A9
:100F9000E3FE2168054648694969C0F34000C1F392
:100FA00080214FF0A00A0FE0FFF7D6FE411B049806
:100FB000814200D808B984F83DA021684869496990
:100FC000C0F34000C1F3802194F83D20A02A02D054
:100FD00008B90029E8D084F83D7020684169C94308
:100FE000890716D4016841F40071016020684169E5
:100FF00080691923012216492046009501F074FCEE
:10100000B8B900E021E084F83D7084F83C6000202D
:10101000B6E7016841F40071016021686FF48060F7
:101020004861192301220A492046009501F05CFC21
:1010300008B10120A4E7039808F1010880458AD38C
:1010400084F83D7084F83C60F3E7022098E70000E4
:10105000020010000000FFFF2DE9F84F1F469046E8
:101060008A460446DDF82890FFF776FE054694F898
:101070003D0020287FD119230122404920460095B8
:1010800001F032FC002876D194F83C00012872D09F
:10109000012084F83C0020680168C90703D1016879
:1010A00041F0010101602068016821F400610160E4
:1010B000212084F83D00102084F83E00002626649C
:1010C000C4F824806785608D20852D48E0622B461A
:1010D0004A465146204601F0C1FA90B9206841695C
:1010E0008069009036E02A464946204601F0AEFC71
:1010F00050B1206C042804D12068016841F40071CB
:1011000001600120BDE8F88F606A216800780861FD
:10111000606A401C6062618D491E6185218D491E97
:1011200089B2218522685369DB435B070BD451B137
:1011300000781061606A401C6062608D401E6085AE
:10114000208D401E20852A464946204601F0A6FBF8
:101150000028CED1208D0028C5D154F83D0B016860
:1011600041F400710160202004F81E09E6776677DB
:101170000020C7E7FFE70220C4E7000002001000DC
:101180000000FFFF2DE9FF4F83B00025DDE9107956
:101190009A4693460446DDF848800095FFF7DCFD4B
:1011A000064694F83D0020287CD119230122854968
:1011B0002046009601F098FB0028F5D194F83C00F9
:1011C00001286FD0012084F83C0020680168C9071D
:1011D00003D1016841F0010101602068016821F438
:1011E00000610160222084F83D00402084F83E0028
:1011F00025646762A4F82A90608D20857248E062B9
:10120000CDE9008653465A462046049901F074FA07
:1012100000287DD1208DDFF8B491202768B1012806
:1012200014D00228206801681ED041F4806101605A
:101230002068416980690090B6E020684169816951
:101240000091016841F400710160ADE0206801681F
:1012500021F48061016072B6206841698169009162
:10126000016841F400710AE041F40061016072B666
:101270002068416981690091016821F48061016001
:1012800062B691E0032868D801280CD002284346B2
:101290004FF000024946204600960FD001F024FB93
:1012A000B0BB10E08BE032464146204601F09BFB8C
:1012B00070BB20680069616A08706CE001F014FB83
:1012C00030BB72B634E02068016821F480610160AF
:1012D00072B620680069616A0870606A401C6062CA
:1012E000208D401E2085608D401E6085384846F266
:1012F000A8110068B0FBF1F0C0EBC00000EB80006B
:101300000090401E009008D020684069C04300E073
:1013100029E040070CD50098F3E744F8305F677385
:10132000A573206940F02000206162B625731AE0A1
:101330002068016841F40071016020680069616AF9
:101340000870606A401C6062218D491E2185618D94
:10135000491E618562B621681BE03246414620463F
:1013600001F041FB18B1012007B0BDE8F08F206803
:101370000069616A0870606A401C6062218D491EC4
:101380002185618D491E618521684A69D2435207D2
:101390000AD409690170606A401C6062208D401E99
:1013A0002085608D401E6085208D00287FF46AAF07
:1013B00084F83D7084F83E5084F83C50D4E7022015
:1013C000D2E70000020010000000FFFF040001004F
:1013D000240000202DE9FF4F83B09A46DDE91197E4
:1013E00093460446DDF84080FFF7B6FC054694F8C6
:1013F0003D0020287FD11923012240492046009535
:1014000001F072FA002876D194F83C00012872D0DD
:10141000012084F83C0020680168C90703D10168F5
:1014200041F0010101602068016821F40061016060
:10143000212084F83D00402084F83E0000262664E8
:10144000C4F82480A4F82A90608D20852C48E0629E
:10145000CDE9007553465A462046049901F0CAF971
:1014600070B930E02A463946204601F0EFFA58B10B
:10147000206C042804D12068016841F400710160E7
:10148000012007B0BDE8F08F606A2168007808612C
:10149000606A401C6062218D491E89B22185628D7F
:1014A000521E628522685369DB435B070BD469B126
:1014B00000781061606A401C6062208D401E2085AB
:1014C000608D401E6085208D0028CBD12A4639468C
:1014D000204601F0E3F90028CAD154F83D0B016819
:1014E00041F400710160202004F81E09E677667758
:1014F0000020C6E7FFE70220C3E70000020010005B
:101500000000FFFF10B586B000210091019102910B
:10151000039100681349884222D1134CA06940F01E
:101520000800A061A069694600F0080004904FF42B
:101530004070009012200190032003900B48FFF7A9
:101540000DFB0B48416841F0E06141F00201416050
:10155000E06940F40010E061E06900F400100490DC
:1015600006B010BD0054004000100240000C0140C5
:101570000000014002488168027811448160704790
:1015800018000020074810B5016841F01001016003
:10159000032000F075F80F2000F006F800F024F8A2
:1015A000002010BD0020024070B50D4D04464FF4E0
:1015B0007A712878B1FBF0F00A490968B1FBF0F0C4
:1015C00001F020F848B9102C07D200222146501E05
:1015D00000F036F800206C6070BD012070BD000086
:1015E00018000020240000200C4808B5816941F053
:1015F00001018161816901F001010091C16941F03E
:101600008051C161C06900F0805000900448416879
:1016100021F0E06141F00071416008BD001002401E
:1016200000000140002809DB00F01F020121914069
:101630004009800000F1E020C0F800117047000070
:10164000F0B40E4B1B680C46C3F30223C3F107052D
:10165000042D00D90425191D072901D2002300E01B
:10166000DB1E012606FA05F1491E214099409E40E5
:10167000761E16403143F0BC03F081BB0CED00E058
:10168000064900F0070208684FF6FF03184040EAD9
:101690000220034A10430860704700000CED00E090
:1016A0000000FA0510B50C0607D501F0070101EBA3
:1016B000810100EBC100283005E001EB810100EB66
:1016C000C10000F5B47099B232B1012202730181F8
:1016D000190C4181002010BD00220273C180F9E77E
:1016E000704701EB810200EBC202D0F8E802D26B36
:1016F00001F06DBF01EB810200EBC202D0F8E802FD
:10170000D2F87C2101F0C6BF70B504460B0601F08B
:10171000070000EB800104EBC1014FF001024FF024
:10172000000503D581F82920283103E081F86951AB
:1017300001F5B471087094F8A802012808D084F863
:10174000A822206802F0E6FB84F8A852002070BDB1
:10175000022070BD70B5044601F00F00626890422F
:1017600001D9012070BD0B0601F0070000EB8001DC
:1017700004EBC1014FF001024FF0000503D581F8E1
:101780002920283103E081F8695101F5B4718D7089
:10179000087094F8A802012808D084F8A8222068CC
:1017A00002F055FC84F8A852002070BD022070BDE4
:1017B0002DE9F05F04685FEA424C0B788D69B4F85C
:1017C00050C04FF000064BF68F7948F2800A48F679
:1017D0008F7B48F2C00E4FF480672AD54FF0020885
:1017E00008EBC308C44407EB4C07E45BC4F30904EB
:1017F000A54203D32D1B8D6101D00BE08E610668DD
:1018000036F8235005EA090585F4005545EA0A052E
:1018100026F82350520609D50D78036833F82520A1
:1018200002EA0B0242EA0E0223F8252084B30A8959
:1018300029E04FF0060808EBC308C44407EB4C0747
:10184000E45BC4F30904A54203D32D1B8D6101D0D1
:101850000BE08E61066836F8235005EA090585F429
:10186000005545EA0A0526F82350520609D40B789C
:10187000056835F8232002EA0B0242EA0E0225F839
:1018800023202CB14A8949690068234602F04EFFA3
:101890002046BDE8F09F2DE9F05F054600680C4644
:1018A0005FEA426C16468B692278B0F850C048F661
:1018B0008F774CF280094FF6FF7B4FF4004E4FF4C8
:1018C000806A4FF000017BD54FF0020808EBC20898
:1018D000E0440AEB480C30F80C00C0F309008342E6
:1018E00011D91B1AA3610FD0730407D52E6836F8DF
:1018F00022303B4043EA090326F8223094F82420A2
:10190000012A50D04EE1A161607810B1012813D0B6
:101910001AE02868B0F85030184400EB0210B0F814
:10192000042422F4F842A0F80424B0F8042442F479
:101930000042A0F8042407E02868B0F850301844AA
:1019400000EB0210A0F804146278286812B1012A92
:1019500011D018E0B0F850100844217800EB0110C5
:10196000B0F80C1421F4F841A0F80C14B0F80C14E1
:1019700041F4004105E0B0F850201044227800EB1B
:101980000210A0F80C1421782846FFF7AAFE700474
:10199000B8D521782A6832F82100384040EA090099
:1019A00022F82100FEE0626902446261E2690244B9
:1019B000E2612369226A9A4203D31846111A04E0AD
:1019C00038E084F824100AB110462162617811B120
:1019D000012923D02BE02968B1F850201144227846
:1019E00001EB021101F2044148B13E280FD8420830
:1019F000C30700D0521C0BEA82220A8017E00A8833
:101A000022F4F8420A800A8842F40042F5E74209CB
:101A1000C30600D1521E4EEA8222EEE72968B1F8D1
:101A200050201144227801EB0211A1F8040483B282
:101A30002289B3E04FF0060808EBC208E0440AEB45
:101A4000480C30F80C00C0F30900834211D31B1A74
:101A5000A3610FD0730407D42E6836F822303B40C0
:101A600043EA090326F8223094F82420012A50D0B2
:101A700098E0A161607810B1012813D01AE02868BD
:101A8000B0F85030184400EB0210B0F8042422F4EF
:101A9000F842A0F80424B0F8042442F40042A0F86C
:101AA000042407E02868B0F85030184400EB021016
:101AB000A0F804146278286812B1012A11D018E045
:101AC000B0F850100844217800EB0110B0F80C1465
:101AD00021F4F841A0F80C14B0F80C1441F40041C2
:101AE00005E0B0F850201044227800EB0210A0F876
:101AF0000C1421782846FFF7F4FD700452D42278A4
:101B0000296831F82200384040EA090021F8220013
:101B100048E0626902446261E2690244E261236969
:101B2000226A9A4203D31846111A216204E00AB1CC
:101B30001046216284F824106278296812B1012AC3
:101B400022D029E0B1F850201144227801EB021193
:101B500001F20C4148B13E280FD84208C30700D01B
:101B6000521C0BEA82220A8016E00A8822F4F8420C
:101B70000A800A8842F40042F5E74209C30600D110
:101B8000521E4EEA8222EEE7B1F85020114422782C
:101B900001EB0211A1F80C04628983B26169286823
:101BA00002F0E2FD21782A6832F8210048F6BF737E
:101BB000184080F0300048F28003184322F82100DA
:101BC0000020BDE8F09F01F0070101EB810100EB6F
:101BD000C100D0F8840170472DE9F04104460F069A
:101BE00001F0070000EB800104EBC1014FF001069A
:101BF0004FF0000503D581F82960283103E081F812
:101C0000695101F5B47108700A61CB704A7802B16C
:101C1000C881022B00D10D7194F8A802012809D0C7
:101C200084F8A862206802F047F8284684F8A85291
:101C3000BDE8F0810220FBE770B50C4601F0070516
:101C400005EB850100EBC101C1E95F230022C1F86A
:101C5000842181F8692181F8685101F5B471620726
:101C6000006802F049FA002070BD70B504460D46C8
:101C700001F007006168884201D9012070BD290682
:101C80004FF000064FF0010207D500EB800104EB96
:101C9000C10181F82920283107E005EB850104EB1B
:101CA000C10181F8696101F5B4718A70087094F816
:101CB000A802012807D084F8A822206802F003FABD
:101CC000680702D006E0022070BD04F52C71206880
:101CD00002F0BBF984F8A862002070BD70B50C4614
:101CE00001F0070505EB850100EBC101C1E90F23F8
:101CF000012281F84C208B6400234B6481F8292059
:101D000001F8285F6207006802F0F6F9002070BD54
:101D10001FB50446006802F005FD000402D5204608
:101D200000F088FF206802F0FDFC40050CD520681B
:101D300030F8441F21F480610180204600F01EF934
:101D40000021204600F035F9206802F0EBFC400449
:101D500005D5206830F8441F21F4804101802068B7
:101D600002F0E0FC800405D5206830F8441F21F41F
:101D700000510180206802F0D5FCC00414D5206811
:101D800030F8401F21F004010180206830F8401F26
:101D900021F008010180204600F003F9206830F8A6
:101DA000441F21F480510180206802F0BBFC000533
:101DB0003ED522680020694632F8203021F81030E4
:101DC000401CC0B20828F7D332F8400F40F00100A1
:101DD0001080206830F8402F22F001020280206835
:101DE000B0F844205205FBD530F8442F22F480622D
:101DF00002800020236831F8102023F82020401CA6
:101E0000C0B20828F6D3206830F8401F41F008011E
:101E10000180206830F8441F21F4006101802068AF
:101E200030F8401F41F004010180204600F0F6F830
:101E3000206802F077FC800508D5206830F8441F40
:101E400021F400710180204600F0AFF8206802F014
:101E500069FCC00505D5206830F8441F21F4807165
:101E600001801FBD2DE9F04186B0040004D094F834
:101E7000A902002520B108E0012006B0BDE8F081EC
:101E800084F8A852204600F05BF8032084F8A902E9
:101E9000206802F0D3F804F1100114228846684645
:101EA000FEF778FA94E80F0002F032F80226D0BB71
:101EB0000021206802F050FC002001270FE000BF45
:101EC00000EB800104EBC10181F8297001F8280FB3
:101ED000C881CD700D614D61401CC0B28D616168DB
:101EE0008142EDD8002011E000EB800104EBC1013C
:101EF00081F8695181F8680181F86B51C1F8785116
:101F0000C1F87C51401CC0B2C1F880516168814267
:101F1000EAD8142241466846FEF73CFA94E80F00DE
:101F200002F083F810B184F8A962A5E784F8245080
:101F300084F8A972206802F076F800209DE700007E
:101F400008B500680B49884212D10B48C16941F4B9
:101F50000001C161C069002200F400000090114638
:101F60001420FFF76DFBBDE808401420FFF75ABBB3
:101F700008BD0000005C00400010024070B504463F
:101F800080680125022801D0FEF79BFC2946D4F881
:101F9000E80201F068FCD4F8E802BDE8704001F006
:101FA00024BCD0F8E80201F048BCD0F8E80201F007
:101FB0004EBC10B5044690F8A80201280BD00120B1
:101FC00084F8A80284F82410206802F0C7FB0020DF
:101FD00084F8A80210BD022010BDD0F8E82200F558
:101FE0002C71104601F04BBC10B5044690F8A802C5
:101FF000012810D0012084F8A802206802F082FB9A
:1020000001212046FFF76CFB206802F00AF800204F
:1020100084F8A80210BD022010BD000010B50446CF
:10202000D0F8E80201F06AFCA069002804D0034857
:10203000016841F00601016010BD000010ED00E0F4
:102040002DE9F84305460078354CC00754D0E069C7
:102050000026C00008D4E06940F08050E061E069EB
:10206000012600F0805000902E480168C90512D466
:102070000168804641F480710160FEF76DFE0746FD
:1020800005E000BFFEF768FEC01B642823D8D8F81F
:102090000000C005F6D5206A10F4407021D0A98850
:1020A00001F4407181421CD0206A1F49012220F4B2
:1020B00040700A6000220A602062C00711D0FEF75B
:1020C0004BFE074641F2883808E000BFFEF744FEA9
:1020D000C11B414502D90320BDE8F883206A80076F
:1020E000F4D5206A696820F44070084320621EB16C
:1020F000E06920F08050E0612878800705D56068AD
:10210000A96820F44040084360602878C00605D5DF
:102110006068E96820F48000084360600020DBE725
:102120000010024000700040400442422DE9F04798
:102130000F46050061D0434E306800F00700B842FA
:1021400009D2306820F0070038433060306800F072
:102150000700B84251D128683B4C810712D540078F
:1021600003D5606840F4E06060602878000703D51C
:10217000606840F4605060606068A96820F0F0001A
:10218000084360602878C00728D06868012810D00C
:102190002168022810D0890700292EDA616821F011
:1021A000030101436160FEF7D7FD804641F28839A3
:1021B0000DE021688903EFE78901EDE7FEF7CCFD2B
:1021C000A0EB0801494502D90320BDE8F08760680B
:1021D000696800F00C00B0EB810FEFD1306800F0BF
:1021E0000700B8420BD9306820F007003843306050
:1021F000306800F00700B84201D00120E5E72878F8
:10220000400705D56068E96820F4E0600843606035
:102210002878000706D56068296920F4605040EAF4
:10222000C100606000F028F86168084AC1F303113A
:10223000515CC8400649086006480068FFF7B4F9D9
:102240000020C2E700200240001002407C54000839
:10225000240000201C00002004480549006849684B
:10226000044AC1F30221515CC84070472400002099
:10227000001002408C54000812A185B00FC98DE8EF
:102280000F0014A0144A006804905168134801F02C
:102290000C03042B10D0082B0ED1C1F38343C903C8
:1022A0001DF803000AD5516804AAC1F34041515CEE
:1022B0000A4A5043B0FBF1F005B070470849484363
:1022C000FAE7000002030405060708090A0B0C0DD3
:1022D0000E0F1010010200000010024000127A00E0
:1022E00000093D002DE9F84F040070D02078C04D62
:1022F000C00749D06868C0F38100012807D068682A
:10230000C0F38100022809D16868C00306D5286897
:10231000800339D560680028E7D035E06068B0F503
:10232000803F0BD010B1B0F5A02F11D0286820F459
:1023300080302860286820F4802002E0286840F47B
:1023400080302860606890B1FEF706FD06460AE01E
:10235000286840F480202860F0E700BFFEF7FCFC0E
:10236000801B642873D828688003F7D50CE0FEF73B
:10237000F3FC064605E000BFFEF7EEFC801B642878
:10238000F0D828688003F7D420789A4E80074FF061
:1023900001094FF0000839D5686810F00C0F07D01C
:1023A0006868C0F38100022809D16868C00306D4B8
:1023B0002868800714D52069012808D110E0206919
:1023C000B0B1C6F80090FEF7C7FC074605E00AE189
:1023D000FEF7C2FCC01B0228C4D828688007F7D5C6
:1023E0002868616920F0F80040EAC10028600DE02B
:1023F000C6F80080FEF7B0FC074604E0FEF7ACFC30
:10240000C01B022823D828688007F7D4207800074B
:102410002CD57948A169D9B1C0F80090FEF79CFC91
:10242000074604E0FEF798FCC01B02280FD8686A34
:102430008007F7D571484FF4FA510068B0FBF1F00E
:10244000009000BF0098411E0091FAD20EE080E09B
:10245000C0F80080FEF780FC074604E0FEF77CFC35
:10246000C01B022875D8686A8007F7D42078400717
:1024700060D5E8690027C00008D4E86940F08050C2
:10248000E861E869012700F0805000905C4801682D
:10249000C90513D40168834641F480710160FEF7D9
:1024A0005BFC824606E000BFFEF756FCA0EB0A008C
:1024B00064284ED8DBF80000C005F5D5E068012897
:1024C0000AD008B1052813D0286A20F0010028623C
:1024D000286A20F0040002E0286A40F00100286227
:1024E000E06841F2883B98B1FEF736FC82460BE08B
:1024F000286A40F004002862EEE700BFFEF72CFCDB
:10250000A0EB0A0159455AD8286A8007F6D50CE095
:10251000FEF722FC824605E0FEF71EFCA0EB0A0156
:1025200059454CD8286A8007F6D41FB1E86920F0D5
:102530008050E861E06988B36968C1F381010229CC
:1025400044D00228C6F8608004D0FEF705FC04469B
:1025500038E034E0FEF700FC074604E0FEF7FCFB41
:10256000C01B02282BD828688001F7D4206AB0F558
:10257000803F05D16868A16820F400300843686096
:10258000D4E908010843696821F4741108436860BC
:10259000C6F86090FEF7E0FB044606E025E000BFC9
:1025A000FEF7DAFB001B022809D828688001F7D55E
:1025B0001BE000BFFEF7D0FB001B022802D903205E
:1025C000BDE8F88F28688001F4D40EE00128F7D028
:1025D0006868226A00F48031914204D1616A00F493
:1025E0007010884201D00120EAE70020E8E70000EF
:1025F00000100240000042428004424224000020B9
:102600000070004010B5401EB0F1807F01D3012062
:1026100010BD4FF0E02460610F21601702F0AFFBA6
:102620000020A06107202061002010BDFEE70168A6
:102630004A69D24352050FD46FF480624A61002187
:1026400040F8301F202242738173026942F0040275
:10265000026101730120704700207047F8B50446FD
:10266000C06A1E460D461746082807D0012805D027
:1026700010F5803F02D0206B122804D12068016839
:1026800041F480710160134600224FF00111204691
:10269000009600F029F940B120680068C00502D515
:1026A0004FF4007020640320F8BD2069B0F5804F1E
:1026B0000ED00620216800EAD51040F0F000086135
:1026C00033463A460B49204600F042F978B902E019
:1026D00005F0FE0000E0E8B22168086105493346D4
:1026E0003A46891F204600F033F90028DCD001204B
:1026F000F8BD0000080001002DE9F84F044600680D
:1027000089460B9D01689846174641F48061016037
:102710002068016841F48071016000954FF0011B51
:102720000022594620460A9B00F0DEF84FF4007A5A
:1027300040B120680068C00501D5C4F840A003205E
:10274000BDE8F88F216809F0FE0008612B46284992
:1027500020460A9A00F0FCF8F0BB206841698069C5
:1027600000902A4620460A9900F070F940B1206C8A
:1027700004283AD12068016841F40071016034E016
:10278000FEB2B8F1010F09D02168380A08612A4663
:1027900020460A9900F05AF90028E8D1206806611D
:1027A0002A4620460A9900F051F90028DFD1206816
:1027B000016841F48071016000950022594620466D
:1027C0000A9B00F091F80028B3D1216809F0FF00BE
:1027D00040F00100086100E007E02B460449204674
:1027E0000A9A00F0B5F80028AAD00120A8E7000056
:1027F000020001002DE9F843044600680D46DDE9BA
:10280000089701689846164641F4807101604B466E
:1028100000224FF001112046009700F065F848B102
:1028200020680068C00502D54FF4007020640320C2
:10283000BDE8F883216805F0FE0008613B464A4682
:102840001549204600F084F888B9206841698069FC
:1028500000903A464946204600F0F8F848B1206C0E
:10286000042804D12068016841F40071016001204E
:10287000DEE7F5B2B8F1010F09D02168300A08612E
:102880003A464946204600F0E1F80028E7D12068A2
:1028900005610020CCE700000200010070B516467B
:1028A0000D4604460DE02046FFF7C1FE08B10120A9
:1028B00070BD681C05D0FEF74FFA801BA84207D8F0
:1028C00035B120684069C0434007ECD4002070BD9A
:1028D000002044F8300F20216173A073216941F07A
:1028E000200121612073E2E72DE9F0471E46904662
:1028F0000D460446C1F30747DDF8209008E0701C40
:1029000006D0FEF729FAA0EB0900B0420FD876B145
:102910002068012F18D0806925EA00000004000C0F
:1029200014D000214145EAD00020BDE8F087002006
:1029300044F8300F20216173A073216941F0200118
:10294000216120730120F0E74069E5E70121E9E713
:102950002DE9F0479A4691460E46044600254FF071
:102960002008C1F3074725E020684069C0434005BF
:1029700014D42068016841F40071016021686FF48B
:1029800080604861256384F83D8084F83E50206C67
:1029900040F00400206484F83C501FE0B9F1FF3F90
:1029A00008D0FEF7D9F9A0EB0A0149450CD8B9F1D6
:1029B000000F09D02068012F13D0806926EA00009B
:1029C0000004000C0BD0CFE744F8305F84F80D8092
:1029D000A573206940F02000206125730120BDE827
:1029E000F0874069EAE72DE9F041002590460E4660
:1029F0000446202717E04069C043C0060CD454F8B1
:102A0000301B6FF01000486144F810596777A577C4
:102A1000206A2062257717E0FEF79EF9A0EB0800F8
:102A2000B04208D83EB120684169C9434906E2D4A2
:102A30000020BDE8F08144F8305F6773A57320691A
:102A400040F02000206125730120F2E770B51646A2
:102A50000D4604460DE02046FFF7E9FD08B10120D0
:102A600070BD681C05D0FEF777F9801BA84207D817
:102A700035B120684069C0430006ECD4002070BD29
:102A8000002044F8300F20216173A073216941F0C8
:102A9000200121612073E2E7F0B500230A243025EC
:102AA00037261F4611E000BFB4EB107F02D905EBBB
:102AB000107C01E006EB107C01F813C001EB430C25
:102AC00000015B1C8CF80170DBB29342ECD3F0BDCB
:102AD0003EB5002410480094019402940D4984608E
:102AE000016004730475012505614FF460214460A1
:102AF000C161FDF767FF08B1FDF7E3FECDE90045D1
:102B0000694605480294FDF7DFFE002801D0FDF775
:102B1000D8FE3EBD00240140A001002070B586B063
:102B200000241C480094019402940394816941F0AC
:102B300010018161816901F010010491816941F006
:102B400020018161816901F020010491816941F0D6
:102B500004018161816901F004010491816941F0FE
:102B60000801816180690C4E00F008004FF40055A7
:102B70000490002229463046FEF7E8F8012000952F
:102B8000CDE901040220039069463046FDF7E6FFD7
:102B900006B070BD00100240001001400D4810B595
:102BA0000B4901600C49416000214FF48042816073
:102BB000C0E9031241618161C1610162FEF7D2F88F
:102BC000002803D0BDE81040FDF77BBE10BD00001B
:102BD00000540040D0010020A086010010B5002262
:102BE0000F49104800F0CCFC08B1FDF76AFE0E4911
:102BF0000C4800F0A9FE08B1FDF763FE0B49094837
:102C000000F0CAFA08B1FDF75CFE064800F0F2FEDB
:102C1000002803D0BDE81040FDF753BE10BD0000F2
:102C200028000020CC030020680100207C00002048
:102C3000FEE7FEE72DE9F84F044640F68F7B48F6A5
:102C40000F7A4FF002094FF4806874E1B0F8441035
:102C500011F00F063AD030F8267039047DD530F8DF
:102C6000261001EA0B0141F0800120F8261006EB46
:102C7000860004EBC00595F8740105F5B4750028CD
:102C80006CD0E87802286AD02878226832F82010C0
:102C900048F68F73194048F2C003194322F82010F8
:102CA0002878D4F800C03CF82010BCF85020490423
:102CB0007ED509EBC000111808EB41003CF800007C
:102CC0008005800D009074D02A89D8E0C9062DD4E3
:102CD000018801EA0A0141F400410180216804F100
:102CE0002805B1F850202B7809EBC300024408EB0B
:102CF0004200085AC0F309006064E16B0844E063D5
:102D000000212046FEF7EDFC94F8240000289CD01A
:102D1000A869002899D194F82400216840F0800027
:102D2000A1F84C00002084F8240004E1018804F597
:102D3000B4750A0521D5B0F850202B78062101EB97
:102D4000C3010A4408EB4201405A04F52C71C0F358
:102D50000903EB61EA88206802E0ACE068E07AE011
:102D600001F0E4FC2168088800EA0B0040F08000D4
:102D700008802046FFF731F9DDE00904D5D5018848
:102D800001EA0B0141F0800101802068B0F8502079
:102D90002B78062101EBC3010A4408EB4201405A9B
:102DA00083059B0DEB6110D0696971B1EA8801E080
:102DB00058E056E0206801F0B9FCE9696869084408
:102DC000686100212046FEF795FC2068018809050E
:102DD0002DD4B0F850100844296900F20C4051B1CC
:102DE0003E2910D84A08C90700D0521C4FF6FF717F
:102DF00001EA82210FE0018821F4F8410180018875
:102E000041F4004107E04A09C90600D1521E4FF4BF
:102E1000004141EA82210180206801884BF68F72CF
:102E2000114081F4405148F280021143018082E058
:102E3000D4F800C0BCF850102A78062000EBC2007D
:102E4000014408EB41003CF800008005800D009033
:102E50001AD0EA8813E03A4629462046FEF7A8FC35
:102E6000009011E0062101EBC000111808EB4100B1
:102E70003CF800008005800D009005D06A8903466B
:102E80006046696901F052FCE96900980844E8610C
:102E90006969009808446861A86918B129690098AF
:102EA000814204D929782046FEF724FC03E0294614
:102EB000206801F021F938063DD506EB860004EBC9
:102EC000C001206830F8262002EA0A0242F40042DB
:102ED00020F8262091F82B002831032804D018B1BF
:102EE000022824D1F80522D42368B3F850200D78A5
:102EF00009EBC500024408EB4200185A8A69C0F386
:102F0000090082420CD9121A8A610BD04A69024424
:102F10004A61CA691044C861206801F0EDF80AE00E
:102F200000208861E9B22046FEF7DBFB03E03A4669
:102F30002046FEF7B0FC2068B0F8441009043FF5C5
:102F400085AE0020BDE8F88F70477047FEF712BBD2
:102F500030B593B028216846FDF74EFA14210AA82F
:102F6000FDF74AFA002401200F94109411940104F3
:102F700012948DE8130004904FF4E010CDE908108E
:102F8000022507956846FFF7ADF908B172B6FEE76E
:102F90000F20CDE90A054FF48060CDE90C400221F5
:102FA0000AA80E94FFF7C2F808B172B6FEE7122025
:102FB0000F904FF40040CDE911040FA8FFF740F83F
:102FC000002801D072B6FEE713B030BD70472DE97E
:102FD000F041D0F8C032D0F8B822CAB101EB810577
:102FE00000EB85040026E7693FB103EBC5039B6B4B
:102FF000B7FBF3F503FB157323B1C2F8146200208D
:10300000BDE8F08100231A46E66100F080FCF6E797
:103010000220F5E770B50546D0F8B84200F07BFB1A
:10302000C4F80C02D5F8B80248B1D5F8BC12D4F8EF
:103030000402CA6804F503719047002070BD0220A5
:1030400070BD70B504460026812100F0B7FA002556
:1030500001212046E56200F0B1FA82212046C4F841
:103060006C5100F0ABFA2564D4F8B80248B1D4F83A
:10307000BC0204F52E7440688047206800F017FEFB
:103080002560304670BD10B5D0E9AE4159B194F815
:103090000002FF2807D08B6894F801222146984748
:1030A000FF2084F80002002010BD00000A210180EA
:1030B000004870479000002043210180004870477D
:1030C000E000002043210180004870479C00002060
:1030D0004321018000487047240100202DE9F04180
:1030E00004460026007C4FF40077012590B340236E
:1030F00002228121204600F063FB4023E562022288
:103100000121204600F05CFB082303228221204697
:10311000C4F86C5100F054FB4FF40770256400F0C4
:10312000C7FDC4F8B802F8B10546D4F8BC0200687F
:1031300080470020C5F81402C5F81802207CD5F895
:10314000042298B140230121204600F045FB30467F
:10315000BDE8F081FFE73B4602228121204600F0D6
:103160002FFB3B46E562CAE70126F0E73B46EAE76C
:1031700010B5D0F8B81269B1027C002AD1F8042247
:1031800005D04023012100F027FB002010BD4FF4A3
:103190000073F7E7022010BD02460220002902D08A
:1031A0000020C2F8BC127047D0F8B802C0F8041270
:1031B00000207047D0F8B802C0F81022C0F80812FA
:1031C000002070472DE9FC410546D0F8B872002078
:1031D0008DF80000ADF80400064608780C4610F0A3
:1031E000600121D020293BD1E288AAB10006607895
:1031F00007D5D5F8BC128B6839469847E28839461E
:1032000026E087F80002A07987F80102E2883946B3
:10321000284600F06AF828E0D5F8BC126078002251
:103220008B682146984720E0607820B10A2809D0B1
:103230000B2815D110E095F89C02032810D102222A
:1032400001A905E095F89C02032809D101226946ED
:10325000284600F064F808E095F89C02032804D0A2
:103260002146284600F036F802263046BDE8FC81AB
:1032700010B5D0F8B812A1B1D1F814220AB10120CA
:1032800010BD0122C1F81422D1F810220263B1F856
:10329000102293B2D1F80822812100F038FB0020DF
:1032A00010BD022010BD10B5D0F8B422526890476E
:1032B000002010BD134610B50A46002100F08CFA1C
:1032C000002010BD134610B50A46002100F01FFB78
:1032D000002010BD10B50446802100F0FDFA204604
:1032E000BDE81040002100F0F7BA10B50323C0F884
:1032F0005C21C0F89432C0F8602113460A460021D0
:1033000000F06AFA002010BD10B505210023C0F8B6
:1033100094121A46194600F05FFA002010BD10B54D
:103320000223C261C0F89432026213460A460021A9
:1033300000F0EDFA002010BD10B504210023C0F804
:1033400094121A46194600F0E2FA002010BD00005F
:1033500010B50A46024903A000F0E2F8004810BD8B
:103360009006002043444320436F6E666967000067
:1033700012200880004870474800002010B50A4617
:10338000024903A000F0CCF8004810BD90060020D0
:1033900043444320496E74657266616365000000B2
:1033A00004200880004870474400002010B50A46F9
:1033B000024903A000F0B4F8004810BD90060020B8
:1033C00053544D6963726F656C656374726F6E6997
:1033D0006373000010B50A46024903A000F0A0F88C
:1033E000004810BD9006002053544D3332205669DA
:1033F000727475616C20436F6D506F7274000000C1
:1034000010B51A2008800A480168001D0468001DD4
:103410000068081809D008220649FFF73DFB054956
:10342000042210312046FFF737FB0248801E10BDF2
:10343000E8F7FF1F5E000020F8B504460020ADF855
:10344000000048880D46010A082948D2DFE801F04B
:103450004704091747473C45D4F8B012207C0A6856
:1034600019E0207C02260028D4F8B40205D0C16AF5
:1034700068468847014646703EE0816AF8E7C0B278
:1034800006282CD2DFE800F0030A1014181CD4F828
:10349000B002426805E0694690471CE0D4F8B002EB
:1034A0008268E2B1207CF6E7D4F8B002C268F8E79F
:1034B000D4F8B0020269F4E7D4F8B0024269F0E748
:1034C000D4F8B0028269ECE7207C40B9D4F8B402A9
:1034D000416B6846884701460EE0207C20B12946B2
:1034E0002046FFF7F7FEF8BDD4F8B402016B68463A
:1034F0008847014607204870BDF8000048B1EA88B7
:1035000052B1824200D90246ADF800202046FFF7B2
:1035100006FFE8880028E6D12046FFF70DFFF8BD3A
:1035200070B5002300281ED00446002502E06D1C63
:10353000EDB2641C2678002EF9D1022404EB450478
:1035400014801278CA545B1C0322CA5400245B1CEA
:1035500006E0CA545B1CDAB28C54521CD3B2401C35
:103560000278002AF5D170BD01004FF0000004D0B0
:10357000012901D0022901D00220704701207047A3
:1035800010B580B1D0F8B43213B10023C0F8B43212
:1035900009B1C0F8B012012180F89C12027000F04D
:1035A000BFF8002010BD022010BD10B5D0F8C00239
:1035B000FEF7D0F8BDE81040FFF7D6BF10B5D0F841
:1035C000C002FEF7A1F8BDE81040FFF7CDBF2DE91E
:1035D000F0411746044651B1D4F8B40242691AB119
:1035E00094F89C02032851D00220BDE8F081D4F861
:1035F0009432002504F11400022B03D0042B3AD09E
:10360000C3B33CE0D0E903639E4207D9F11AC1601D
:103610008AB239462046FFF755FE12E08068B0FBBB
:10362000F3F103FB110199B9984211D3D4F8981220
:1036300088420DD2002211462046FFF743FEC4F80F
:10364000985200231A461946204600F0C5F816E0A5
:10365000D4F8B402C16829B194F89C02032801D1BE
:10366000204688478021204600F036F92046FFF7A3
:103670004BFE04E0FFE78021204600F02DF994F88E
:10368000A002012804D184F8A05201E0204690470E
:103690000020AAE770B51546044649B1D4F8B40233
:1036A00082691AB194F89C02032830D0022070BDC0
:1036B000D4F8941204F5AA70032902D005291ED06B
:1036C00027E0D0E903218A420BD9531AC360084688
:1036D000834200D303469AB229462046FFF7EAFD0B
:1036E00017E0D4F8B402016929B194F89C020328C8
:1036F00001D1204688472046FFF71EFE09E0002042
:103700000146C4F89402204600F0E6F801E02046A5
:103710009047002070BDD0F8C002FEF754BA0000F8
:1037200010B504461C481D49C0F8E842C4F8C00260
:103730000160082141600221816000218161C16135
:103740000162FEF78FFB08B1FDF7BBF80022D4F849
:10375000C0021823114604F53074FDF7A3FF582367
:10376000002280212068FDF79DFFC02300228121D7
:103770002068FDF797FF4FF488730022012120682D
:10378000FDF790FF4FF48073002282212068FDF73F
:1037900089FF002010BD0000300F0020005C0040B9
:1037A0000A0601F07F01D0F8C00201EB810100EBB5
:1037B000C10002D590F82A00704790F86A0170475E
:1037C00010B51C461346D0F8C0022246FEF704FA94
:1037D000BDE81040FFF7C8BE10B5D0F8C002FEF734
:1037E0002BFABDE81040FFF7BFBE70B500220446BB
:1037F00040231146FFF7E4FF40260125C4F8646129
:103800003346002280212046C4F85851FFF7D8FFE4
:103810006662A56184F89C520020C4F8940260603E
:10382000C4F8A402D4F8B80228B1D4F8B402002134
:10383000426820469047002070BD90F89C120429F1
:1038400003D190F89D1280F89C120020704710B5AB
:1038500090F89C12032904D1D0F8B412C96901B1BF
:103860008847002010BD01740020704710B5D0F8C3
:10387000C002FEF79EFBBDE81040FFF775BE70B5B5
:10388000044600F52A70054600F04AF80120C4F805
:103890009402B4F8AE02C4F8980294F8A80210F0AA
:1038A0001F010AD001290DD0022910D000F080019B
:1038B000204600F011F8002070BD2946204600F097
:1038C0009EF8F8E72946204600F0CAF9F3E72946B2
:1038D000204600F01DF9EEE710B5D0F8C002FEF763
:1038E000C4F9BDE81040FFF73FBE10B5D0F8C002E4
:1038F000FEF77AFBBDE81040FFF736BE90F89C1249
:1039000080F89D12042180F89C120020704710B5A9
:10391000D0F8C002FEF7E2F9BDE81040FFF724BE80
:103920000A7802704A7842708A78CB7802EB0322D8
:1039300042800A794B7902EB032282808A79C97925
:1039400002EB0121C18070470246002011B1C2F88C
:10395000B41270470220704710B5D0F8B422022488
:103960001AB11268904700B90024204610BD00002B
:1039700070B50E461E4D897804462970012931D84C
:1039800094F89C0202280BD003280FD03146204621
:10399000FFF7A0FC29782046BDE87040FFF783BC04
:1039A000D9B10320616084F89C0209E071B16068BC
:1039B000884212D0C1B22046FFF775FC29786160B9
:1039C0002046FFF7C9FF02280CD006E0022084F849
:1039D0009C0220466160FFF766FC2046BDE870400F
:1039E000FFF7AABC31462046BDE87040FFF772BC25
:1039F0008C00002010B5FFF778FF002010BD2DE9E6
:103A0000F0410A78002612F0600208D0202A01D086
:103A1000402A70D1D0F8B422926890476DE04B787C
:103A2000002201250A2B66D2DFE803F0405D6557CE
:103A3000650805652C29FFF7FFFC5EE004468888D1
:103A4000D8B9C888C8B94888802816D200F07F073E
:103A500094F89C02032810D084F89E7239462046C0
:103A6000FFF704FF2046FFF767FC1FB1022084F830
:103A70009C0242E084F89C523FE020463BE0FFF786
:103A800077FF3AE0CB88012B35D190F89C32012B9F
:103A900004D0022B02D0032B2DD104E0826001223E
:103AA00000F1080116E00122011D13E090F89C22AC
:103AB000012A03D0022A01D0032A1CD1CA88022A73
:103AC00019D1C560D0F8A41209B10321C160022246
:103AD00000F10C01FFF723FC0FE0498801290CD10C
:103AE000C0F8A45211E090F89C32012B08D0022BB0
:103AF00006D0032B04D0FFF7EDFB3046BDE8F08184
:103B000049880129F9D1C0F8A422FFF715FCF4E790
:103B10002DE9F0410A46044610780027097910F093
:103B200060030AD0202B01D0402B50D1D4F8B4022E
:103B300011468368204698478FE0C0F34110012862
:103B400006D05078D0B301282AD003283FD107E00F
:103B5000D4F8B402114683682046BDE8F041184706
:103B600094F89C02022802D0032872D10AE071B3B3
:103B700080296ED02046FFF7AFFE80212046FFF758
:103B8000ABFE6AE0508838B931B1802904D0D088C2
:103B900010B92046FFF7A0FE2046FFF7CDFB5CE002
:103BA00094F89C020228E2D0032852D1508898BB96
:103BB0004806F1D02046FFF7F8FCEDE7FFE794F860
:103BC0009C020026022803D0032842D112E040E0E4
:103BD00009B180293DD1080601F07F0000EB80008B
:103BE00004EB800101D5143101E001F5AA71022234
:103BF0000E602AE0080601F00F0000EB800004EBE5
:103C000080000AD5806920B301F07F0000EB8000BE
:103C100004EB800514350BE01FE0D0F85801C0B16B
:103C200001F07F0000EB800004EB800505F5AA752C
:103C300041B1802906D02046FFF7B2FD10B1012026
:103C4000286000E02E60022229462046FFF767FB2D
:103C500003E011462046FFF73DFB3846BDE8F08102
:103C600070B5054608780C4610F0600003D0202897
:103C700001D0402816D195F89C02012803D00228D3
:103C800001D003280ED1207901280BD8D5F8B40231
:103C9000826828469047E188014306D12846FFF70D
:103CA0004BFB02E02846FFF715FB002070BD704774
:103CB00000487047100D00202DE9F0470C780026D1
:103CC00030F8243048F68F121340CA78002A7DD08D
:103CD000012A7CD0022A02D0032A7FD0012648F292
:103CE0008002134320F824300D7830F8254048F640
:103CF0008F731C402C43144320F825400D7B48F261
:103D0000C00C48F6BF744CF280074BF68F79EDB3C8
:103D100091F80080C24630F8285048F280181D40C3
:103D200045EA080520F82A50B0F8505091F8008074
:103D3000054405EB0815B1F8088028F00108A5F83E
:103D40000084B0F8505091F80080054405EB081548
:103D5000B1F80A8028F00108A5F808844D78002DF4
:103D60000D7830F825804FEA48487DD0B8F1000F33
:103D700007DA30F8258008EA030848EA070820F83F
:103D800025800F7830F827506D0600E02CE006D52E
:103D900030F827501D4045EA0C0520F82750CB7815
:103DA0000D78012B30F8253003EA040301D083F0AD
:103DB0002003134320F825300B7830F8231001EA54
:103DC0000901114320F82310304602E003E008E027
:103DD00004E0BDE8F08743F4007380E743F4C06378
:103DE0007DE743F480637AE74D782DB3B0F8505007
:103DF0000F78054405EB0715CF8827F00107A5F8D4
:103E000000740F7830F827506D0606D530F827502B
:103E10001D4045EA0C0520F82750CB78012B06D031
:103E20000B7830F82310214081F02001C9E70B788E
:103E300030F823102140C4E7B0F850400D78044416
:103E400004EB0514CD8825F00105A4F80854B0F85A
:103E500050400D78044404EB05140D6904F20C4441
:103E600075B13E2D14D800E030E04FEA550CED0757
:103E700001D00CF1010C4FF6FF7505EA8C2511E01D
:103E8000258825F4F8452580258845F4004509E076
:103E90004FEA551CED0601D1ACF1010C4FF4004581
:103EA00045EA8C2525800D7830F82540640405D539
:103EB00030F825401C403C4320F825400B7830F872
:103EC000231001EA090181F440517AE7B8F1000FAB
:103ED00007DA30F8258008EA030848EA070820F8DE
:103EE00025800F7830F827506D0606D530F827501A
:103EF0001D4045EA0C0520F827500D7830F8253094
:103F000003EA090383F44053134320F825308EE776
:103F1000002070472DE9F04391F80C804F780A7823
:103F200048F6BF7C4BF68F7948F2800348F2C00513
:103F30004CF2800648F68F74B8F1000F28D0002F9D
:103F400030F822704FEA474748D0002F05DA30F8A2
:103F500022702740374320F822700A7830F8227008
:103F60007F0605D530F8227027402F4320F82270B5
:103F70000D7830F825202240324320F825200C7897
:103F800030F8242002EA0C021A4320F824201AE018
:103F90007FB130F82260760605D530F822602640E1
:103FA0002E4320F822600A7830F8221001EA0C0132
:103FB0000EE030F822506D0405D530F8225025402F
:103FC000354320F822500A7830F8221001EA09011E
:103FD000194320F822100020BDE8F083002F05DAF5
:103FE00030F822702740374320F822700A7830F8E2
:103FF0002260760605D530F8226026402E4320F850
:1040000022600E7830F8262022402A4320F826200D
:104010000C7830F8242002EA09021A4320F8242000
:10402000C1E70020704700207047012120F8401FA1
:1040300000210180818001820846704730F8401FCE
:1040400021F43F410180002070470020704730B5C7
:104050000A7BB2BB4A7848F68F7548F28004C2B139
:104060000B7830F82320520607D530F823202A4059
:1040700048F2C0052A4320F82320CA78012A20D01C
:104080000A7830F8221048F6BF73194081F02001F9
:1040900014E00A7830F822305B0407D530F822307B
:1040A0002B404CF280052B4320F822300A7830F860
:1040B00022104BF68F73194081F44051214320F8B0
:1040C0002210002030BD10B54A780978002A48F245
:1040D000800330F8212005D048F6BF74224082F0DA
:1040E000100204E04BF68F74224082F480521A438F
:1040F00020F82120002010BD2DE9F0470E464B7816
:10410000097B04464FF0000948F68F7248F2800A96
:104110004FF6FF774FF40048012B09D000296ED0ED
:10412000F07802286CD001286BD00120BDE8F08720
:10413000B5693069854200D90546C9B1F17848F2C0
:104140008013022923D0317834F82100104018431D
:1041500024F82100306A401B3062307834F8201097
:10416000490671787ED500297DD001297CD03FE1B8
:10417000ABB2F2882046716900F0F6FAB4F850004C
:104180003178204400EB0110A0F80454EAE0316AD1
:1041900081426AD9317834F821001040184324F85C
:1041A0002100306A401B3062307834F82010490614
:1041B00071786CD511B1012924D02AE0B4F85010DF
:1041C000214401EB001000F20C404DB13E2D0FD800
:1041D0006908EA0700D0491C07EA8121018018E03C
:1041E000018821F4F8410180018841F40041F5E79C
:1041F0006909EA0600D1491E48EA8121EEE79CE1FF
:10420000BCE126E2B4F85020111901EB0010A0F82F
:104210000C547289ABB22046716900F0A5FA70693E
:10422000284470613169306A884202D9401B30628B
:1042300002E00546C6F82090707800287CD1B4F8DA
:1042400050003178204400EB011000F204406DB1C1
:104250003E2D13D86908EA0700D0491C07EA8121DE
:10426000018012E001E19BE0BBE084E0018821F4E1
:10427000F8410180018841F40041F1E76909EA064B
:1042800000D1491E48EA8121EAE7328965E011B18F
:10429000012921D027E0B4F85010214401EB00108F
:1042A00000F204404DB13E2D0FD86908EA0700D056
:1042B000491C07EA8121018015E0018821F4F841B9
:1042C0000180018841F40041F5E76909EA0600D15F
:1042D000491E48EA8121EEE7B4F85010214401EB71
:1042E0000010A0F804543289ABB22046716900F086
:1042F0003BFA7069284470613169306A884202D99A
:10430000401B306202E00546C6F820907078002815
:104310007ED1B4F850003178204400EB011000F257
:104320000C4055B13E2D10D86908EA0700D0491C51
:1043300007EA812101800FE072E0018821F4F84151
:104340000180018841F40041F4E76909EA0600D1DF
:10435000491E48EA8121EDE77289ABB220467169B6
:1043600000F002FA317834F8210048F6BF721040AC
:1043700080F03000C0E1327834F8220048F68F63D4
:10438000184040EA0A0024F82200B4F850003278BD
:10439000204400EB02108BB2A0F804343289DDE730
:1043A000B4F85010214401EB001000F20C404DB164
:1043B0003E2D0FD86908EA0700D0491C07EA812181
:1043C000018015E0018821F4F8410180018841F461
:1043D0000041F5E76909EA0600D1491E48EA812152
:1043E000EEE7B4F85020111901EB0010A0F80C54BE
:1043F0007289ABB22046716900F0B6F97069284441
:1044000070613169306A884203D9401B306203E031
:104410006EE00546C6F82090002DA3D0707858B104
:1044200001287FF41EAFB4F850003178204400EB2F
:104430000110A0F8045428E7B4F850003178204463
:1044400000EB011101F204413E2D06D86808EA078D
:1044500000D0401C07EA802005E06809EA0600D188
:10446000401E48EA802008800FE711B1012921D0C1
:1044700027E0B4F85010214401EB001000F2044092
:104480004DB13E2D0FD86908EA0700D0491C07EA54
:104490008121018015E0018821F4F8410180018823
:1044A00041F40041F5E76909EA0600D1491E48EAEE
:1044B0008121EEE7B4F85010214401EB0010A0F880
:1044C00004543289ABB22046716900F04DF970692D
:1044D000284470613169306A884202D9401B3062D9
:1044E00002E00546C6F82090002D96D0707858B1AD
:1044F00001287FF420AFB4F850100819317800EB90
:104500000110A0F80C5427E7B4F85000317820448B
:1045100000EB011101F20C413E2D06D86808EA07B4
:1045200000D0401C07EA802005E06809EA0600D1B7
:10453000401E48EA802008800EE7B1693069814258
:1045400002D9091AB161B5E00846C6F81890B1E081
:10455000088820F4F8400880088840F400400BE008
:104560003E2875D84208C00700D0521C07EA8220B6
:1045700002E000BF48EA82200880B5E093B9B4F8B1
:1045800050003178204400EB0110316900F2044002
:1045900069B13E2913D84B08C90700D05B1C07EA54
:1045A00083210180707888B1012832D03AE00188F7
:1045B00021F4F8410180018841F40041F1E74B0901
:1045C000C90600D15B1E48EA8321EAE7B4F850002F
:1045D0003178204400EB0110316900F20C4049B100
:1045E0003E290FD84B08C90700D05B1C07EA83217E
:1045F000018017E0018821F4F8410180018841F42D
:104600000041F5E74B09C90600D15B1E48EA83214A
:10461000EEE7B4F850100819317800EB0110318A38
:10462000A0F80C14F069A8B3317834F821004304E1
:1046300001D5430603D444F24003184254D134F860
:104640002100104048F2C002104324F821004BE042
:104650003CE0B1693069814202D9091AB16102E0D6
:104660000846C6F818908BB9B4F850103278214437
:1046700001EB021101F2044168B13E2813D842084F
:10468000C30700D0521C07EA82220A80717889B1E0
:10469000012921D028E00A8822F4F8420A800A88F9
:1046A00042F40042F1E74209C30600D1521E48EA33
:1046B0008222EAE7B4F850103278214401EB02116B
:1046C00001F20C4100287FF44BAF41E74209C006DC
:1046D0007FF450AF521E4DE7B4F8502011193278D4
:1046E00001EB0211A1F80C04317834F821004BF6EB
:1046F0008F72104080F4405040EA0A0024F82100F4
:10470000002013E50021A0F844104FF43F41A0F829
:1047100040100020704700000148FDF7F9BA000082
:10472000300F0020B0F844007047000010B500EBD7
:1047300042005C0800F5806009D000BF30F8042B0F
:1047400001F8012B120A01F8012B641EF6D1DA07D9
:1047500001D00088087010BD0020704711B9802179
:10476000A0F84C100020704710B55B1C00EB420015
:104770005B0800F5806009D011F8012B11F8014B9E
:1047800042EA042220F8042B5B1EF5D110BDFEE79F
:1047900010B50446FCF7E0FA6168401A21688842C7
:1047A00004D9FCF7D9FA6060012010BD002010BDCB
:1047B00010B50379002403F0010364F30003838040
:1047C000837903F0010364F30003C3800160028175
:1047D00010BD8188C0884A08B2EB500F07D1C907C5
:1047E000B1EBC07F01D1002070470120704702204B
:1047F000704770B50D46044600F043F800281AD003
:10480000A188206800EB510000782870B4F90800F6
:10481000A188401EB0EB510F06D1C84360F30001E0
:1048200001F00100A08005E0012000EB510060F3E1
:104830004F01A180012070BD70B50D46044600F007
:1048400020F8B4F90810884201D1002070BDE18839
:10485000206800EB51000570B4F90810E088491E8B
:10486000B1EB500F05D1C14361F3000000F001002E
:1048700004E0012101EB500161F34F00E0800120D1
:1048800070BD10B50446FFF7A4FF00280BD0012827
:1048900008D0E188A0884A08B2EB500F04D9A2EBF7
:1048A000500006E0208910BD4008A0EB510021898E
:1048B000081A80B210BD10B504460160FCF74CFA2E
:1048C000606010BD2DE9F84304460D46087849782C
:1048D000042640EA0120A97840EA0140E97840EA4C
:1048E00001676068B84204D2B900E068FBF792FC47
:1048F000E06000208046676010E0A919AA5D4B784F
:1049000042EA03228B78C97842EA034242EA016113
:10491000A160E26842F82010401C361D61688142A7
:10492000EBD8A819A95D4278361D41EA02218278A8
:10493000C07841EA024141EA00672069B84204D2E6
:10494000B900A069FBF766FCA0610020276110E0B8
:10495000A919AA5D4B7842EA03228B78C97842EA0A
:10496000034242EA01616161A26942F82010401CE1
:10497000361D21698142EBD8A819A95D4278361D00
:1049800041EA02218278C07841EA024141EA0067A7
:10499000E069B84204D2B900606AFBF73BFC606290
:1049A000E76100271DE0A919684600F043FD301DAE
:1049B000064604E0A95DAA19761C02F8011C0099BC
:1049C0000144B142F6D8009A291802442A44491EEB
:1049D00002F8018C2162009A8618606A40F827105C
:1049E0007F1CE069B842DED83046BDE8F88300009D
:1049F0000048704750550008004870476054000850
:104A000000487047715500080048704792550008EB
:104A100000487047A555000800487047C655000873
:104A200010B5064B0A68B2FBF3F403FB1424B2FB87
:104A3000F3F203681A4402600C6010BD00CA9A3B8E
:104A40000048704719560008004870473A56000859
:104A500000487047545600080048704775560008D3
:104A6000004870479056000800487047B15600084B
:104A70000A7842604B7842EA032242608B7842EA2D
:104A800003424260CB7842EA036242600B790A1D1E
:104A90008360497943EA01218160937841EA0341C7
:104AA0008160D27841EA026181600820704700008D
:104AB00000487047CF56000800487047F05600087D
:104AC00002490022C0E90012826070474055000888
:104AD0002DE9F041054600790870A8880E46000AC5
:104AE000487068680424000C88706868000EC870FC
:104AF00000210CE0E868321950F821003055030A13
:104B00005370030C000E9370491CD070241D68680C
:104B10008842EFD8287C3055288A010A3019417024
:104B20002969090C81702969090EC17000210BE007
:104B3000A869321950F821003055030A5370030C4C
:104B4000000E9370D070491C2869241D8842EFD84C
:104B5000287F3055A88B0027010A30194170E96978
:104B6000090C8170E969090EC170241D13E0686A9F
:104B700050F82700FBF7AAFB80463019414600F0A9
:104B800066FC686A241D424650F827103019FBF76E
:104B9000BCFB44447F1CE869B842E8D82046BDE825
:104BA000F08170B50646007908700C46B068FBF7D6
:104BB0008DFB0546601C294600F049FC601D2A4615
:104BC000B168FBF7A2FB681D70BD2DE9F0410546F9
:104BD00000790870A8880C46000A4870A868FBF79E
:104BE00075FB0646A01C314600F031FCA01D324684
:104BF000A968FBF78AFBB71DE868FBF767FB064669
:104C0000E019314600F023FC3F1DE0193246E96807
:104C1000FBF77BFB3E442869FBF758FB0746A019CE
:104C2000394600F014FC361DA0193A462969FBF7F5
:104C30006CFBF0196969221821540B0A53700B0C94
:104C4000090E9370D170001DBDE8F0812DE9F0418F
:104C5000044600790870A0880426000A487060683D
:104C60000D46000C88706068000EC870002708E0D0
:104C7000A06900EB071001680A68A919904706446B
:104C80007F1C6068B842F3D8207FA855A08B010A2A
:104C9000A8194170E169090C8170E169090EC170C0
:104CA000301DBDE8F08170B504460D46001DFFF7CC
:104CB000CDFF94F824102954A18C0A0A29184A70AF
:104CC000626A120C8A70626A120ECA700022001D9B
:104CD0000CE0E16A2B1851F8221029540E0A5E707C
:104CE0000E0C090E9E70001DD970521C616A914213
:104CF000EFD870BD70B505460C464068FBF7E6FA84
:104D000006462046314600F0A2FB201D3246696867
:104D1000FBF7FBFA301D297A215429890A0A211848
:104D2000001D4A70AA68120C8A70AA68120ECA7016
:104D3000297B2154A9890A0A21184A70EA68120CB1
:104D40008A70EA68120ECA70001D70BD02790A707E
:104D50008288120A4A704268120C8A704268120EE7
:104D6000CA70027A0A710289130A0A1D4B7181689E
:104D7000090C91708068000ED070082070470907F8
:104D8000090E002804DB00F1E02080F800147047D1
:104D900000F00F0000F1E02080F8141D70470000C3
:104DA00010B50F4800F00CFB0E4B0F481A1D186091
:104DB0000E480021C2E900010D4C03F10C00DC603B
:104DC0000C4CC0E901419961D961196259622430E2
:104DD000D962044A08A30161C0E9003210BD000095
:104DE000300200208803002010550008F854000805
:104DF00028550008CE56000861697253656E73002D
:104E000010B50948FFF7C4FC00280CD0074907205B
:104E10000A46486201F13000D0E9021003681B68BD
:104E2000BDE81040184710BD08000020880300208E
:104E300001460148FFF700BD240200201FB54FF4D2
:104E40008053012901D14FF4A053012A02D0022A34
:104E500005D102E043F4807301E043F40073190AC2
:104E60008DF80C108DF80D304FF47A73022203A9DF
:104E70008DE80E0001238021FCF7ACFA1FBD000075
:104E800010B54FF4806216491648FFF791FC15499A
:104E900000200C3101F5C472C1F80801C1F80C0101
:104EA000C1F81401C1F8100101EB8003D3F8E03020
:104EB00073B1401C0528F7DB4FF4FA710A48FFF77D
:104EC000FAFC09480A21BDE810400830FFF7F3BC9E
:104ED00001EB80036930C3F8E020C2E90201EBE78F
:104EE0009008002024020020080000204FF4FA71EE
:104EF0000148FFF7E0BC00000000002010B50648A4
:104F0000FFF746FC002806D0BDE810404FF40051E2
:104F10000248FBF713BF10BD000000200010014045
:104F2000FCF730FBFEF714F8FDF7F8FDFDF7D0FDB8
:104F3000FDF734FEFDF752FEC820FBF7FDFDFFF73D
:104F4000D5FFFFF79DFF0848FBF710FC0022114634
:104F50000548FFF773FF00BFFFF752FFFFF7CEFFD3
:104F600000F004F8F8E70000D001002010B5054873
:104F7000FFF70EFC002804D0BDE81040024800F006
:104F8000D7B810BD1000002030020020F0B587B067
:104F900004463048002100902F48ADF804100290DC
:104FA0000D4664260390CDE9040100BF04EB85079C
:104FB000D7F8E000E8B10089ADF8040057F8E00F39
:104FC00000680290386840680168896888470390E3
:104FD000386840680168C9688847CDE904063868C0
:104FE0006A46016920680368204698473220FBF72B
:104FF000A3FD6D1C052DD9DB5FF0000504EB8507D3
:10500000D7F8F400F0B18088ADF8040057F8F40F39
:10501000806802903868016889688847039038681A
:105020000168C9688847CDE904063868016849689D
:105030008847014620686A46036820469847322020
:10504000FBF77AFD6D1C052DD8DB012084F81C01CF
:1050500007B0F0BDCC540008DF5500083EB504464B
:105060006846FFF72DFD20686A460A21036820463E
:105070009847FBF771FEA0603EBD00003EB50D46AF
:105080000446642903DB94F81C0100283BD0106817
:1050900004F18301036810469847FF2184F87C10CF
:1050A000FE2184F87D1084F87E00010A84F87F10C8
:1050B0000144C9B2C1F1FF0184F8801084F8815025
:1050C000291284F8821000210522C31D04E0A518CE
:1050D000521C95F87C5029449A42F8DBCA1701EB20
:1050E000126222F0FF02891AC01D2218C1F1FF01CD
:1050F000451C82F87C10642D06DC04F17C00A9B20A
:10510000FBF7C8FB28463EBD07490322074B009327
:105110008DF804200291216820466A460B68072119
:1051200098474FF0FF303EBDE0550008B4540008EA
:105130002DE9FF5F0446FBF70FFE0546D4F8240176
:105140000026291A42F6F820814201D984F81C6110
:10515000D4F8080128B1D4F82801A84201D2C4F833
:105160000861DFF84C926FF0010B4FF008084FF028
:10517000010A04F11807606948B1FBF7EDFD6169A8
:10518000401B884203D9584604B0BDE8F09FFF2079
:105190008DF8000069468748FFF72BFB012803D1F3
:1051A0009DF80000002810DA94F81C0158B1D4F8DA
:1051B0002001291A40F6C410814204D92046FFF785
:1051C0004DFFC4F820510020DEE7D4F818110A186A
:1051D000C4F81821D4F80811072928D099B3012957
:1051E00049D0022955D0032959D0042961D0052975
:1051F00068D006296ED00829BDD102EA0902C4F898
:105200000861FF2AB7D1D4F8100198B30A287FD0DB
:1052100006286ED00B286DD004EB800050F89C0C53
:105220000028A8D001680A6839469047A3E7D4F857
:1052300014114A1CC4F81421C855D4F80C01401E9E
:10524000C4F80C0151E002E0C4F8088193E7FF289C
:1052500009D0FBF781FD401B41F2883188428AD991
:1052600084F81C618FE705F11400C4F808A1C4F8A4
:10527000280180E73FE0FE2809D0C4F8086194F8CF
:105280001C010028D2D12046FFF7E8FE73E7022078
:105290000CE00321C4E94210C4E945606BE7D4F88F
:1052A0000C1101EB0020C4F80C010420C4F8080123
:1052B00061E702EA0902FF2A02D0C4F808615AE74E
:1052C0000520F3E70621C4F81001C4F80811C4F85A
:1052D000180150E7D4F8101101EB0020C4F81001B8
:1052E0000720C4F80801D4F80C0100289ED1ABE7D0
:1052F0000EE051E058E02046FFF7B0FE2046FFF7F1
:1053000045FEC4F820514FF0FF30C4F824513BE76C
:1053100001A8FFF7D5FBFBF71FFDA168401A00901D
:10532000394601A8FFF7A4FB00984FF47A71B0FB4F
:10533000F1F002990844029000984FF47A71B0FBA2
:10534000F1F201FB120043F609514843039901EBC6
:1053500080100390FBF700FD4FF47A71B0FBF1F180
:10536000029A511A491EE1604FF47A71B0FBF1F2D2
:1053700001FB120010494843104901EB80100399CA
:10538000084404F110012061081FFFF749FBFBF7F7
:10539000E3FCC4F82401EEE6394604F59870FFF703
:1053A00091FA84F82CA1E6E684F81C61E3E600009B
:1053B000FF00008024020020F7C2FFFF00CA9A3BD2
:1053C0001A490160002100F5987280F81C11184BF1
:1053D000C2E90031D16011619161D16151620A4627
:1053E00000EB8203521CC3F8E010052AF8D3002218
:1053F00000EB8203521CC3F8F410052AF8D30022F4
:105400008318521C1976642AFAD300228318521C7E
:1054100083F87C10642AF9D3C0F83411C0F83C1129
:10542000C0F84011C0F8481141617047E4540008C9
:105430009C54000810B5002202608B5CD400A3408D
:105440000468521C23430360042AF6D310BD0022D3
:10545000D30021FA03F38354521C042AF8D3704773
:10546000726F7373657269616C5F6D7367732F52CE
:10547000657175657374506172616D0000000000A4
:1054800000000000010203040607080900000000F4
:10549000010203040000000000000000D14A0008DF
:1054A000C5480008F9490008F1490008000000005B
:1054B00000000000A34B000800000000094A00089B
:1054C000014A00080000000000000000CB4B00086B
:1054D00000000000194A0008114A000800000000FE
:1054E000000000007D50000831510008000000005D
:1054F00000000000000000004D4C0008000000000B
:10550000494A0008414A000800000000000000006D
:10551000A74C000800000000594A0008514A000842
:105520000000000000000000F54C00080000000032
:10553000694A0008614A00080000000000000000FD
:105540004D4D0008714A0008B94A0008B14A0008E8
:105550003966306539386264613635393831393801
:105560003664646635336166613761343065343979
:10557000003131616264373331633235393333326C
:1055800036316364363138336264313264363239ED
:105590003500726F7373657269616C5F6D736773E9
:1055A0002F4C6F670030616435316638386663347C
:1055B000343839326638633130363834303737363C
:1055C000343630303500726F7373657269616C5FA9
:1055D0006D7367732F546F706963496E666F000057
:1055E0004D6573736167652066726F6D20646576C3
:1055F0006963652064726F707065643A206D6573CD
:1056000073616765206C6172676572207468616E92
:10561000206275666665722E00306665643261319F
:105620003163313365313163353537316234653259
:10563000613939356139316133007374645F6D7379
:1056400067732F4D756C746941727261794C617921
:105650006F7574003661343065306666613661316D
:105660003761353033616333663836313639393135
:1056700062316636007374645F6D7367732F466CB6
:105680006F617433324D756C746941727261790067
:105690003463643063383361383638336465616548
:1056A0003430656364616336306535336266613812
:1056B000007374645F6D7367732F4D756C7469410B
:1056C0007272617944696D656E73696F6E00006313
:1056D00064373136366337346335353263333131CD
:1056E00066626363326665356137626332383900FA
:1056F0007374645F6D7367732F54696D6500000088
:105700002457000800000020A00100002801000824
:10571000E4570008A0010020E01600008401000802
:1057200081F6FFFF0118320182101324F413713344
:105730001B08A1041AAD041AD5041301341B085127
:10574000081A7D0417040309041201140202021648
:1057500040830440571D0201020341031E1A031334
:105760000D081B0809041A05041A310441130A061E
:1057700032022A40801C0902434B111DC032090429
:10578000911A020B130524161001052401100901BA
:1057900004240202052406170107058203081C10D1
:1057A000090481320A1D07050102432C0705810700
:1057B0000938442A40072A8107112B0907440A3B6C
:1057C000044413DD301B0843044BC531E81A870C31
:1057D00013CF2F1B081508C11AC5101AB9041AD106
:0457E000041AAD04F6
:04000005080000ED02
:00000001FF
